:100000000EC01DC01CC01BC01AC019C018C017C02C
:1000100016C015C039C082C012C011C010C0112452
:100020001FBECFE5D2E0DEBFCDBF20E0A0E6B0E04E
:1000300001C01D92AA36B207E1F700D10AC1E0CF94
:100040008AB582608ABD83B7816083BF12BE80E2B9
:1000500089BD80E888BD89B7886189BF1092680032
:100060001092690010926400109265001092660070
:10007000109267001092600010926100109262006E
:1000800010926300789408951F920F920FB60F920A
:1000900011248F9380916900873088F480916800E3
:1000A000833010F588B318BA809168008F5F809311
:1000B00068008F910F900FBE0F901F901895809140
:1000C0006800882379F3809168008330D8F010921B
:1000D0006800809169008F5F809369008F910F9015
:1000E0000FBE0F901F901895C19A109268008091D2
:1000F00069008F5F809369008F910F900FBE0F9002
:100100001F901895C19A809168008F5F8093680056
:100110008F910F900FBE0F901F9018951F920F9206
:100120000FB60F9211242F933F934F935F936F93CA
:100130007F938F939F93AF93BF93EF93FF938091A0
:100140006900893008F465C080916900893008F43D
:100150004FC08FEF89BD87B317BA8091600090912F
:100160006100A0916200B09163008097A105B10584
:1001700008F055C026B38091600090916100A09175
:100180006200B091630040916400509165006091FD
:1001900066007091670030E0220F331FF90102C042
:1001A000EE0FFF1F8A95E2F7CF01092E000CAA0B74
:1001B000BB0B842B952BA62BB72B809364009093BD
:1001C0006500A0936600B0936700809160009091F5
:1001D0006100A0916200B09163000196A11DB11D64
:1001E0008093600090936100A0936200B0936300DD
:1001F000FF91EF91BF91AF919F918F917F916F91FF
:100200005F914F913F912F910F900FBE0F901F90D4
:100210001895809169008F5F80936900E9CF1092F3
:10022000600010926100109262001092630082E000
:1002300087BB1092690080E289BDDACF82E087BB7C
:10024000C19AFEDE8FE19EE40197F1F700C0000045
:06025000F9CFF894FFCF86
:00000001FF
