:100000000EC01DC01CC01BC01AC019C018C017C02C
:1000100016C015C025C013C012C011C010C01124D5
:100020001FBECFE5D2E0DEBFCDBF20E0A0E6B0E04E
:1000300001C01D92A136B207E1F724D028C0E0CF5D
:100040008AB582608ABD83B7816083BF12BE88E0B3
:1000500089BD89B7806189BF109260007894089546
:100060001F920F920FB60F9211248F939F9398B304
:1000700082E0892788BB9F918F910F900FBE0F90D0
:100080001F90189582E087BBC19ADADFFFCFF89402
:02009000FFCFA0
:00000001FF
