:100000000EC015C014C013C012C011C010C00FC064
:100010000EC00DC00DC00BC00AC009C008C011241D
:100020001FBECFE5D2E0DEBFCDBF14D02DC0E8CFDC
:100030001F920F920FB60F9211248F939F9398B334
:1000400082E0892788BB9F918F910F900FBE0F9000
:100050001F90189582E087BBC19AF89483B785609A
:1000600083BF8AB582608ABD84EF89BD89B780610C
:1000700089BF78942FE38DE093E021508040904039
:0C008000E1F700C00000F6CFF894FFCFBD
:00000001FF
