:100000000EC01DC01CC01BC01AC019C018C017C02C
:1000100016C015C036C013C012C011C010C01124C4
:100020001FBECFE5D2E0DEBFCDBF20E0A0E6B0E04E
:1000300001C01D92A836B207E1F755D559C5E0CFEA
:100040008AB582608ABD83B7826083BF12BE88E0B2
:1000500089BD89B7806189BF109265007894089541
:1000600080B7806380BF80B7806480BF80B78160C5
:1000700080BF1FBC84E087BD80E48EBD8FEF8DBD47
:1000800008951F920F920FB60F9211248F939F9392
:1000900080916500882399F080916500813009F492
:1000A0000EC580E48EBD88E089BD10926500C29ABD
:1000B0009F918F910F900FBE0F901F9018958AED12
:1000C00089BD91E09093650080B78F7B80BF80B73A
:1000D0008F7C80BFB9981092660086B38695817038
:1000E000880F880F88BB86B386958170880F880F2C
:1000F00088BB86B386958170880F880F88BB86B3CE
:1001000086958170880F880F88BB86B3869581702D
:10011000880F880F88BB86B386958170880F880FFB
:1001200088BB86B386958170880F880F88BB86B39D
:1001300086958170880F880F88BB86B386958170FD
:10014000880F880F88BB86B386958170880F880FCB
:1001500088BB86B386958170880F880F88BB86B36D
:1001600086958170880F880F88BB86B386958170CD
:10017000880F880F88BB86B386958170880F880F9B
:1001800088BB86B386958170880F880F88BB86B33D
:1001900086958170880F880F88BB86B3869581709D
:1001A000880F880F88BB86B386958170880F880F6B
:1001B00088BB86B386958170880F880F88BB86B30D
:1001C00086958170880F880F88BB86B3869581706D
:1001D000880F880F88BB86B386958170880F880F3B
:1001E00088BB86B386958170880F880F88BB86B3DD
:1001F00086958170880F880F88BB86B3869581703D
:10020000880F880F88BB86B386958170880F880F0A
:1002100088BB86B386958170880F880F88BB86B3AC
:1002200086958170880F880F88BB86B3869581700C
:10023000880F880F88BB86B386958170880F880FDA
:1002400088BB86B386958170880F880F88BB86B37C
:1002500086958170880F880F88BB86B386958170DC
:10026000880F880F88BB86B386958170880F880FAA
:1002700088BB86B386958170880F880F88BB86B34C
:1002800086958170880F880F88BB86B386958170AC
:10029000880F880F88BB86B386958170880F880F7A
:1002A00088BB86B386958170880F880F88BB86B31C
:1002B00086958170880F880F88BB86B3869581707C
:1002C000880F880F88BB86B386958170880F880F4A
:1002D00088BB86B386958170880F880F88BB86B3EC
:1002E00086958170880F880F88BB86B3869581704C
:1002F000880F880F88BB86B386958170880F880F1A
:1003000088BB86B386958170880F880F88BB86B3BB
:1003100086958170880F880F88BB86B3869581701B
:10032000880F880F88BB86B386958170880F880FE9
:1003300088BB86B386958170880F880F88BB86B38B
:1003400086958170880F880F88BB86B386958170EB
:10035000880F880F88BB86B386958170880F880FB9
:1003600088BB86B386958170880F880F88BB86B35B
:1003700086958170880F880F88BB86B386958170BB
:10038000880F880F88BB86B386958170880F880F89
:1003900088BB86B386958170880F880F88BB86B32B
:1003A00086958170880F880F88BB86B3869581708B
:1003B000880F880F88BB86B386958170880F880F59
:1003C00088BB86B386958170880F880F88BB86B3FB
:1003D00086958170880F880F88BB86B3869581705B
:1003E000880F880F88BB86B386958170880F880F29
:1003F00088BB86B386958170880F880F88BB86B3CB
:1004000086958170880F880F88BB86B3869581702A
:10041000880F880F88BB86B386958170880F880FF8
:1004200088BB86B386958170880F880F88BB86B39A
:1004300086958170880F880F88BB86B386958170FA
:10044000880F880F88BB86B386958170880F880FC8
:1004500088BB86B386958170880F880F88BB86B36A
:1004600086958170880F880F88BB86B386958170CA
:10047000880F880F88BB86B386958170880F880F98
:1004800088BB86B386958170880F880F88BB86B33A
:1004900086958170880F880F88BB86B3869581709A
:1004A000880F880F88BB86B386958170880F880F68
:1004B00088BB86B386958170880F880F88BB86B30A
:1004C00086958170880F880F88BB86B3869581706A
:1004D000880F880F88BB86B386958170880F880F38
:1004E00088BB86B386958170880F880F88BB86B3DA
:1004F00086958170880F880F88BB86B3869581703A
:10050000880F880F88BB86B386958170880F880F07
:1005100088BB86B386958170880F880F88BB86B3A9
:1005200086958170880F880F88BB86B38695817009
:10053000880F880F88BB86B386958170880F880FD7
:1005400088BB86B386958170880F880F88BB86B379
:1005500086958170880F880F88BB86B386958170D9
:10056000880F880F88BB86B386958170880F880FA7
:1005700088BB86B386958170880F880F88BB86B349
:1005800086958170880F880F88BB86B386958170A9
:10059000880F880F88BB86B386958170880F880F77
:1005A00088BB86B386958170880F880F88BB86B319
:1005B00086958170880F880F88BB86B38695817079
:1005C000880F880F88BB86B386958170880F880F47
:1005D00088BB86B386958170880F880F88BB86B3E9
:1005E00086958170880F880F88BB86B38695817049
:1005F000880F880F88BB86B386958170880F880F17
:1006000088BB86B386958170880F880F88BB86B3B8
:1006100086958170880F880F88BB86B38695817018
:10062000880F880F88BB86B386958170880F880FE6
:1006300088BB86B386958170880F880F88BB86B388
:1006400086958170880F880F88BB86B386958170E8
:10065000880F880F88BB86B386958170880F880FB6
:1006600088BB86B386958170880F880F88BB86B358
:1006700086958170880F880F88BB86B386958170B8
:10068000880F880F88BB86B386958170880F880F86
:1006900088BB86B386958170880F880F88BB86B328
:1006A00086958170880F880F88BB86B38695817088
:1006B000880F880F88BB86B386958170880F880F56
:1006C00088BB86B386958170880F880F88BB86B3F8
:1006D00086958170880F880F88BB86B38695817058
:1006E000880F880F88BB86B386958170880F880F26
:1006F00088BB86B386958170880F880F88BB86B3C8
:1007000086958170880F880F88BB86B38695817027
:10071000880F880F88BB86B386958170880F880FF5
:1007200088BB86B386958170880F880F88BB86B397
:1007300086958170880F880F88BB86B386958170F7
:10074000880F880F88BB86B386958170880F880FC5
:1007500088BB86B386958170880F880F88BB86B367
:1007600086958170880F880F88BB86B386958170C7
:10077000880F880F88BB86B386958170880F880F95
:1007800088BB86B386958170880F880F88BB86B337
:1007900086958170880F880F88BB86B38695817097
:1007A000880F880F88BB86B386958170880F880F65
:1007B00088BB86B386958170880F880F88BB86B307
:1007C00086958170880F880F88BB86B38695817067
:1007D000880F880F88BB86B386958170880F880F35
:1007E00088BB86B386958170880F880F88BB86B3D7
:1007F00086958170880F880F88BB86B38695817037
:10080000880F880F88BB86B386958170880F880F04
:1008100088BB86B386958170880F880F88BB86B3A6
:1008200086958170880F880F88BB86B38695817006
:10083000880F880F88BB86B386958170880F880FD4
:1008400088BB86B386958170880F880F88BB86B376
:1008500086958170880F880F88BB86B386958170D6
:10086000880F880F88BB86B386958170880F880FA4
:1008700088BB86B386958170880F880F88BB86B346
:1008800086958170880F880F88BB86B386958170A6
:10089000880F880F88BB86B386958170880F880F74
:1008A00088BB86B386958170880F880F88BB86B316
:1008B00086958170880F880F88BB86B38695817076
:1008C000880F880F88BB86B386958170880F880F44
:1008D00088BB86B386958170880F880F88BB86B3E6
:1008E00086958170880F880F88BB86B38695817046
:1008F000880F880F88BB86B386958170880F880F14
:1009000088BB86B386958170880F880F88BB86B3B5
:1009100086958170880F880F88BB86B38695817015
:10092000880F880F88BB86B386958170880F880FE3
:1009300088BB86B386958170880F880F88BB86B385
:1009400086958170880F880F88BB86B386958170E5
:10095000880F880F88BB86B386958170880F880FB3
:1009600088BB86B386958170880F880F88BB86B355
:1009700086958170880F880F88BB86B386958170B5
:10098000880F880F88BB86B386958170880F880F83
:1009900088BB86B386958170880F880F88BB86B325
:1009A00086958170880F880F88BB86B38695817085
:1009B000880F880F88BB86B386958170880F880F53
:1009C00088BB86B386958170880F880F88BB86B3F5
:1009D00086958170880F880F88BB86B38695817055
:1009E000880F880F88BB86B386958170880F880F23
:1009F00088BB86B386958170880F880F88BB86B3C5
:100A000086958170880F880F88BB86B38695817024
:100A1000880F880F88BB86B386958170880F880FF2
:100A200088BB86B386958170880F880F88BB86B394
:100A300086958170880F880F88BB86B386958170F4
:100A4000880F880F88BB86B386958170880F880FC2
:100A500088BB86B386958170880F880F88BB86B364
:100A600086958170880F880F88BB86B386958170C4
:100A7000880F880F88BB86B386958170880F880F92
:100A800088BB86B386958170880F880F88BB86B334
:100A900086958170880F880F88BB86B38695817094
:100AA000880F880F88BB90936500B99A86E088BB51
:100AB0009F918F910F900FBE0F901F90189580E21D
:100AC00089BD82E0809365008FEB8EBD80B7806327
:100AD00080BF80B7806480BF9F918F910F900FBEC1
:100AE0000F901F901895ACDABBDA86E087BBFFCF7A
:040AF000F894FFCFA8
:00000001FF
