:100000000EC06CC01CC0B5C01AC019C018C017C043
:1000100016C015C0DCC013C012C011C010C011241E
:100020001FBECFE5D2E0DEBFCDBF20E0A0E6B0E04E
:1000300001C01D92AB36B207E1F734D139C1E0CF30
:100040008AB582608ABD83B7826083BF12BE88E0B2
:1000500089BD89B7806189BF10926700789408953F
:1000600080B7806880BF80B7846080BF80E88EBD25
:1000700089B7806489BF08958CB580638CBD80B7D3
:10008000806380BF8CB580648CBD80B7816080BF89
:100090001FBC84E087BD80E48BBD8FEF8DBD0895CC
:1000A0008CB58F7C8CBD8CB58F7B8CBD08958CB549
:1000B00080638CBD8CB580648CBD0895AC9A85B787
:1000C000816085BF0895AC9885B7816085BF08952C
:1000D0006C9A08958FB97F9BFECF08951F920F925F
:1000E0000FB60F9211242F933F934F935F936F930B
:1000F0007F938F939F93AF93BF93EF93FF939091D1
:1001000062009F5F90936200809161004091630064
:10011000509164006091650070916600282F2170F5
:1001200030E0F90102C0EE0FFF1F9A95E2F7CF0110
:10013000092E000CAA0BBB0B842B952BA62BB72BDF
:100140008093630090936400A0936500B093660071
:10015000FF91EF91BF91AF919F918F917F916F919F
:100160005F914F913F912F910F900FBE0F901F9075
:1001700018951F920F920FB60F9211242F933F9351
:100180004F935F936F937F938F939F93AF93BF939F
:10019000EF93FF9380E289BD83E080936700AC9882
:1001A00085B7816085BF68DF84E68EBDFF91EF91E2
:1001B000BF91AF919F918F917F916F915F914F917F
:1001C0003F912F910F900FBE0F901F9018951F9287
:1001D0000F920FB60F9211248F939F938091670017
:1001E0008823F9F0809167008130C1F18091670028
:1001F000823009F442C080916700833009F444C022
:100200001092670080E48BBD8AE089BDAC9A85B707
:10021000816085BF9F918F910F900FBE0F901F90AF
:1002200018958CB58F7C8CBD8CB58F7B8CBD80B7C1
:10023000806880BF80B7846080BF80E88EBD89B74A
:10024000806489BF81E08093670084E089BD9F91CD
:100250008F910F900FBE0F901F90189582E089BD6F
:1002600080936700AC9A85B7816085BF9F918F911D
:100270000F900FBE0F901F9018959091610081E034
:10028000892780936100C6CF8FEB8BBD8CB58063CF
:100290008CBD8CB580648CBD8CE189BD84E080937D
:1002A0006700B8CFCDDEE8DE6C9A8AE187BBFFCF6E
:0402B000F894FFCFF0
:00000001FF
