:100000000EC01DC01CC01BC01AC019C018C017C02C
:1000100016C015C036C013C012C011C010C01124C4
:100020001FBECFE5D2E0DEBFCDBF20E0A0E6B0E04E
:1000300001C01D92A736B207E1F77FD084C0E0CFA0
:100040008AB582608ABD83B7826083BF12BE88E0B2
:1000500089BD89B7806189BF109264007894089542
:1000600080B7806380BF80B7806480BF80B78160C5
:1000700080BF1FBC84E087BD80E48EBD8FEF8DBD47
:1000800008951F920F920FB60F9211248F939F9392
:1000900080916400882301F180916400813061F1D6
:1000A0008091640098B38230B9F184E0892788BBDD
:1000B00080E48EBD88E089BD1092640080B78F7B9C
:1000C00080BF80B78F7E80BFB9989F918F910F902E
:1000D0000FBE0F901F90189588E089BD98B384E0FB
:1000E000892788BB81E0809364009F918F910F9056
:1000F0000FBE0F901F9018958CE889BD98B384E0CF
:10010000892788BB82E0809364009F918F910F9034
:100110000FBE0F901F90189584E0892788BB83E05D
:10012000809364008FEB8EBD80B7806180BF80B705
:10013000806480BF80E289BDC8CF82DF91DF86E026
:0A01400087BBC29AFFCFF894FFCFEF
:00000001FF
