:100000000EC01DC01CC01BC01AC019C018C017C02C
:1000100016C015C03FC013C012C011C010C01124BB
:100020001FBECFE5D2E0DEBFCDBF20E0A0E6B0E04E
:1000300001C01D92AA36B207E1F742D147C1E0CF15
:100040008AB582608ABD83B7826083BF12BE88E0B2
:1000500089BD89B7806189BF109265007894089541
:100060008CB580638CBD80B7806380BF8CB58064A5
:100070008CBD80B7816080BF1FBC84E087BD80E4F9
:100080008BBD8FEF8DBD08956C9A08958FB97F9BBE
:10009000FECF08951F920F920FB60F9211242F9347
:1000A0003F934F935F936F937F938F939F93AF9300
:1000B000BF93CF93EF93FF93209165002111DEC092
:1000C0008FEF89BD81E0809365008CB58F7B8CBDFF
:1000D0008CB58F7C8CBDBC98109268001092630028
:1000E00030916100A0E0B0E086B382958170382B3A
:1000F0003093610096B3C091640092959170932300
:10010000892F0A2E01C0880F0A94EAF78C2B80935E
:10011000640081E08A0F809363001196A830B105D6
:1001200019F710926300A0E0B0E086B3982F929583
:100130009F70892F81708093610086B382958F7044
:100140008923E82FE170F0E0CF010A2E01C0880F6B
:100150000A94EAF78093670081E08A0F8093630036
:100160001196A830B10509F710926300E0E0F0E0C5
:1001700086B3982F92959F70892F8170809361002C
:1001800086B382958F708923682F617070E0CB01F0
:100190000E2E01C0880F0A94EAF78093600081E078
:1001A0008E0F809363003196E830F10509F71092C5
:1001B000630060E070E086B3982F92959F70892F5E
:1001C00081708093610086B382958F708923482F58
:1001D000417050E0CA01062E01C0880F0A94EAF768
:1001E0008093620081E0860F809363006F5F7F4F92
:1001F0006830710501F71092630030E0809164006F
:1002000090E002C0959587953A95E2F781708095C8
:10021000880F880F880F88BB309163003F5F309351
:100220006300383058F3109263008091670090E0CB
:1002300002C0959587952A95E2F78170880F880FFF
:10024000880F88BB209163002F5F209363002830C4
:1002500060F3BC9A84E188BBFF91EF91CF91BF918D
:10026000AF919F918F917F916F915F914F913F914E
:100270002F910F900FBE0F901F90189580916500E1
:10028000813041F080E48BBD8AE089BD1092650029
:10029000C29AE2CF10926400109267001092600040
:1002A0001092620085E389BD82E0809365008FEB48
:1002B0008BBD8CB580638CBD8CB580648CBDCCCF80
:1002C000BFDECEDE6C9A8AE187BBFFCFF894FFCF0A
:00000001FF
