:100000000EC01DC01CC01BC01AC019C018C017C02C
:1000100016C015C036C013C012C011C010C01124C4
:100020001FBECFE5D2E0DEBFCDBF20E0A0E6B0E04E
:1000300001C01D92A836B207E1F7C9D0CEC0E0CF0B
:100040008AB582608ABD83B7826083BF12BE8EED9F
:1000500089BD89B7806189BF109265007894089541
:1000600080B7806380BF80B7806480BF80B78160C5
:1000700080BF1FBC84E087BD83EC8EBD8FEF8DBD3C
:1000800008951F920F920FB60F9211248F9386B38B
:1000900083FB882780F9880F880F88BB86B383FB92
:1000A000882780F9880F880F88BB86B383FB882751
:1000B00080F9880F880F88BB86B383FB882780F977
:1000C000880F880F88BB86B383FB882780F9880F49
:1000D000880F88BB86B383FB882780F9880F880F39
:1000E00088BB86B383FB882780F9880F880F88BB7D
:1000F00086B383FB882780F9880F880F88BB86B377
:1001000083FB882780F9880F880F88BB86B383FB21
:10011000882780F9880F880F88BB86B383FB8827E0
:1001200080F9880F880F88BB86B383FB882780F906
:10013000880F880F88BB86B383FB882780F9880FD8
:10014000880F88BB86B383FB882780F9880F880FC8
:1001500088BB86B383FB882780F9880F880F88BB0C
:1001600086B383FB882780F9880F880F88BB86B306
:1001700083FB882780F9880F880F88BB86B383FBB1
:10018000882780F9880F880F88BB86B383FB882770
:1001900080F9880F880F88BB86B383FB882780F996
:1001A000880F880F88BB86B383FB882780F9880F68
:1001B000880F88BB86B383FB882780F9880F880F58
:1001C00088BB8F910F900FBE0F901F90189538DF4E
:0E01D00047DF86E087BBC19AFFCFF894FFCFD0
:00000001FF
