:100000000EC01DC01CC01BC01AC019C018C017C02C
:1000100016C015C036C013C012C011C010C01124C4
:100020001FBECFE5D2E0DEBFCDBF20E0A0E6B0E04E
:1000300001C01D92A736B207E1F799D09EC0E0CF6C
:100040008AB582608ABD83B7826083BF12BE88E0B2
:1000500089BD89B7806189BF109264007894089542
:1000600080B7806380BF80B7806480BF80B78160C5
:1000700080BF1FBC84E087BD80E48EBD8FEF8DBD47
:1000800008951F920F920FB60F9211242F933F9352
:100090004F938F939F9380916400811153C080E4AC
:1000A0008EBD1092640010926600809166008630CA
:1000B00054F40000809166008F5F80936600809109
:1000C00066008630B4F380B78F7B80BF80B78F7EA9
:1000D00080BFB99898B384E0892788BB80E589BD43
:1000E00081E0809364001092650080916500803209
:1000F000C0F4809165008F5F809365000000000070
:1001000086B348B381FB222720F930E0C901880F6C
:10011000991F880F991F842788BB809165008032C2
:1001200040F381E080936400B99AC19A109265000F
:100130009F918F914F913F912F910F900FBE0F90F4
:100140001F90189580916400813091F798B384E0F6
:10015000892788BB80E289BD109264008FEB8EBD39
:1001600080B7806180BF80B7806480BFE1CF68DFE7
:0E01700077DF86E087BBC19AFFCFF894FFCF00
:00000001FF
