:100000000EC01DC01CC01BC01AC019C018C017C02C
:1000100016C015C036C013C012C011C010C01124C4
:100020001FBECFE5D2E0DEBFCDBF20E0A0E6B0E04E
:1000300001C01D92A636B207E1F7DDD002C1E0CFC4
:100040008AB582608ABD83B7826083BF12BE8CE1AD
:1000500089BD89B7806189BF109264007894089542
:1000600080B7806380BF80B7806480BF80B78160C5
:1000700080BF1FBC84E087BD80E48EBD8FEF8DBD47
:1000800008951F920F920FB60F9211240F931F9392
:100090002F933F934F935F936F937F938F939F9390
:1000A000AF93BF93EF93FF9380916400882319F17E
:1000B00080916400813009F456C0809164008230E0
:1000C00009F481C088E089BD80E48EBD109264008F
:1000D000FF91EF91BF91AF919F918F917F916F9120
:1000E0005F914F913F912F911F910F910F900FBEF4
:1000F0000F901F90189580B78F7B80BF80B78F7E41
:1001000080BFB99896B3809165004091600050918E
:100110006100609162007091630091FB222720F9D9
:1001200030E0F90102C0EE0FFF1F8A95E2F7CF0120
:10013000092E000CAA0BBB0B842B952BA62BB72BDF
:100140008093600090936100A0936200B09363007D
:1001500084E089BD81E080936400809165008F5FB9
:1001600080936500B5CF809165008032E0F596B34D
:100170008091650000916000109161002091620003
:100180003091630091FB442740F950E0BA0102C06E
:10019000660F771F8A95E2F7CB01092E000CAA0B98
:1001A000BB0B802B912BA22BB32B809360009093E1
:1001B0006100A0936200B0936300809165008F5F3F
:1001C0008093650085CF83E0809364008FEB8EBDC4
:1001D00080B7806180BF80B7806480BF80E289BDC6
:1001E0001092650075CF82E08093640084E689BD3B
:1001F000B99AC19A6DCF24DF33DF86E087BBC19AFD
:1002000020E030E08091600090916100A091620058
:10021000B091630048B3022E04C0B695A795979598
:1002200087950A94D2F7842B88BB8FE19EE40197CF
:10023000F1F700C000002F5F3F4F2032310511F76A
:06024000DFCFF894FFCFB0
:00000001FF
